:020000040800F2
:10000000982E00202D030008A1010008A30100087C
:1000100039030008A7010008A9010008000000003A
:10002000000000000000000000000000AB0100081C
:10003000AD01000800000000AF0100089760000853
:100040004703000847030008470300084703000868
:100050004703000847030008470300084703000858
:100060004703000847030008470300084703000848
:100070004703000847030008470300084703000838
:100080004703000847030008470300084703000828
:100090004703000847030008470300084703000818
:1000A0004703000847030008470300084703000808
:1000B00047030008470300084703000847030008F8
:1000C00047030008470300084703000847030008E8
:1000D00047030008B553000825550008F5560008E9
:1000E00047030008470300084703000847030008C8
:1000F00047030008117C0008470300084703000875
:1001000047030008470300084703000847030008A7
:1001100061580008A3590008470300084703000876
:100120004703000847030008470300084703000887
:100130004703000847030008470300084703000877
:10014000470300084703000847030008654E0008FE
:10015000470300084703000847030008395C00080C
:100160004703000847030008470300084703000847
:100170004703000847030008470300084703000837
:100180004703000847030008DFF810D00BF044FADB
:1001900000480047C9940008AFF30080982E002063
:1001A0007047FEE7FEE7FEE7FEE7704770477047DF
:1001B0000CB500205449019000900A6842F4803246
:1001C0000A604FF4A0430A6802F400320092019AD8
:1001D000521C0192009A12B9019A9A42F3D10A680C
:1001E000920334D50120009047484030026842F025
:1001F000805202604548026842F440420260424830
:10020000083002680260026842F40042026002683C
:1002100042F4A0520260031F3D4A1A600A6842F08D
:1002200080720A600A689201FCD53A4A40F2057170
:100230001160016821F003010160016841F00201D1
:1002400001600168C1F381010229FAD10CBD00905F
:100250000CBD314810B5016841F4700101602A48B5
:10026000016841F001010160274A00210832116054
:1002700002682A4B1A400260031D294A1A6002686C
:1002800022F48022026020480C300160FFF790FFCA
:1002900021494FF000608039086010BD70B51A4CDC
:1002A000083420681F4A10F00C011F4804D0551074
:1002B000042903D0082903D002601BE0056019E07F
:1002C0001149091D0B68C3F380560B6803F03F0307
:1002D00016B1B5FBF3F201E0B2FBF3F20B6809686B
:1002E000C3F388135A43C1F30141491C4900B2FBCF
:1002F000F1F1016021680C4AC1F30311121D515C38
:100300000268CA40026070BD0038024000700040C0
:1003100008544007003C024088ED00E0FFFFF6FE75
:10032000103000240024F40000000020064880471C
:1003300006480047FEE7FEE7FEE7FEE7FEE7FEE7CA
:10034000FEE7FEE7FEE7FEE753020008890100082A
:100350002849084328490860704730B50F22C478FF
:1003600001780123FCB1244C246801F1E02104F45C
:10037000E064C4F5E064C4F30724C4F10405E2407A
:100380004478AC408578154025432A0181F8002443
:10039000007800F01F018B404009800000F1E02050
:1003A000C0F8003130BD01F01F00834048098000D3
:1003B00000F1E020C0F8803130BD104A1140014307
:1003C0000D48001F016070470B4A121D002911687B
:1003D00001D0014300E08143116070474FF0E021FC
:1003E0000428086903D020F004000861704740F039
:1003F0000400FAE70000FA050CED00E080FFFF1FA3
:1004000010B501210C02204600F083FC2046BDE817
:100410001040002100F07DBC30B54268C84B0C791B
:100420001A400B6842EA0422134343608268C54BBA
:100430004D791A40D1E9034323438C6844EA4504CB
:10044000234313438360C26A097D22F47002491E6C
:10045000C9B242EA0151C16230BD0021016001719F
:1004600041718160C1600161012101757047B64B26
:1004700010B5D3F80423B5490A40D0E9001421434C
:10048000D0E90240044321431143C3F8041310BDD3
:100490000021016041608160C1607047002981686E
:1004A00002D041F0010101E021F0010181607047BB
:1004B0004268A74B1A400A43426070474162826219
:1004C0007047426822F01F020A43426070479E490B
:1004D0000028D1F8040302D040F4000001E020F429
:1004E0000000C1F80403704797490028D1F80403BD
:1004F00002D040F4800001E020F48000C1F8040341
:10050000704770B5072409290AD9C568A1F10A0600
:1005100006EB4606B440A543B3401D43C56007E063
:10052000056901EB4106B440A543B3401D43056195
:100530001F23072A09D2446B521E02EB820293400A
:100540009C4391400C43446370BD0D2A09D2046B57
:10055000D21F02EB820293409C4391400C43046300
:1005600070BDC46A0D3A02EB820293409C439140F5
:100570000C43C46270BD816841F080418160704766
:10058000014600208968490000D5012070470029F4
:10059000816802D041F4806101E021F480618160D2
:1005A00070470029816802D041F0020101E021F08A
:1005B0000201816070474268491E22F4604242EAAB
:1005C0004131416070470029416802D041F4006127
:1005D00001E021F4006141607047C06C80B2704757
:1005E0005948D0F8080370470029816802D041F4C7
:1005F000807101E021F48071816070470029816879
:1006000002D041F4007101E021F400718160704773
:100610004D490028D1F8040302D040F4005001E015
:1006200020F40050C1F80403704770B5072409296D
:100630000AD9C568A1F10A0606EB4606B440A543EF
:10064000B3401D43C56007E0056901EB4106B440B6
:10065000A543B3401D430561836BC3F30154121BD3
:10066000921C02EB82041F22A2409343A1400B4341
:10067000836370BD826B491E22F4401242EA01512D
:100680008163704708B508440090026008BD826825
:1006900022F470220A4382607047826822F440127A
:1006A0000A4382607047816841F48001816070472D
:1006B000014600208968490200D5012070470029C1
:1006C000416802D041F4806101E021F48061416021
:1006D00070470029416802D041F4805101E021F4C3
:1006E00080514160704708B5084428300090006888
:1006F00080B208BD01238B4041680AB1194300E074
:100700009943416070470246002012680A4200D0B7
:1007100001207047C9430160704730B50246002090
:1007200053680C0A01258D4011682B40214202D0EC
:10073000002B00D0012030BD6FEA1121016070470D
:10074000FFFEFFFCFDF7FFC000200140E030FCFF92
:10075000FFFD3FFF824910B5884206D101210846BE
:1007600000F0AFFA002101205BE07E49884206D10B
:100770000121022000F0A5FA0021022051E07A496F
:10078000884206D10121042000F09BFA00210420B8
:1007900047E07649884206D10121082000F091FA0D
:1007A000002108203DE07249884206D10121102035
:1007B00000F087FA0021102033E06E49884206D10C
:1007C0000121202000F07DFA0021202029E06A4943
:1007D000884206D10121402000F073FA0021402018
:1007E0001FE06649884206D10121802000F069FAA5
:1007F0000021802015E06249884202D10121841540
:100800000AE06049884202D10121441504E05E49B2
:1008100088420AD101210415204600F052FA002135
:100820002046BDE8104000F04CBA10BDF0B50023E2
:10083000012403270D6804FA03F21540954242D1C2
:10084000D0F800C05E0007FA06F52CEA050CC0F8E7
:1008500000C091F804C0D0F800E00CFA06FC4CEAA5
:100860000E0CC0F800C091F804C0BCF1010F02D01A
:10087000BCF1020F1FD1D0F808C02CEA050CC0F85B
:1008800008C091F805C0D0F808E00CFA06FC4CEA64
:100890000E0CC0F808C0D0F804C02CEA020CC0F856
:1008A00004C0426891F806C00CFA03FC1FFA8CFCE5
:1008B00042EA0C024260C268AA43C260CA79C568B3
:1008C000B2402A43C2605B1C102BB3D3F0BD4FF67D
:1008D000FF7101600021017141718171C171704727
:1008E00008B541F480320092C261C1610099C161D2
:1008F000C169C069009008BD0246002012690A4221
:1009000000D001207047006980B270470246002085
:1009100052690A4200D001207047406980B2704796
:1009200001837047418370470AB101837047418357
:1009300070474161704742694A40426170474B07C6
:10094000DB0E9A40C90810B500EB8100016A0F2444
:100950009C40A1430162016A1143016210BD000085
:10096000000002400004024000080240000C024067
:10097000001002400014024000180240001C024017
:10098000002002400024024000280240F84801688C
:1009900041F001010160F64A00210832116002684D
:1009A000F44B1A400260031DF34A1A60F04BF34AFD
:1009B00084331A60F04A103A1B1D1A60026822F450
:1009C00080220260EA480C300160181D0160704707
:1009D000E7490022891C0A7008707047024600200F
:1009E000510901290CD002290CD0E1497431096860
:1009F00002F01F02012393400B4200D001207047F8
:100A0000DB49F4E7DA497031F1E718B500204FF41B
:100A1000A04400903120FFF7E1FF0099491C0091AC
:100A2000A14201D00028F5D03120FFF7D7FF0028E0
:100A300000D0012018BDCE490A6822F0F80242EA2F
:100A4000C00008607047CE4908607047C84900225E
:100A500070310A700A70012802D0042801D10520E3
:100A600008707047C7490860704741EA82115A0808
:100A700010B5C54B029C03EB02421143014341EA0E
:100A80000460BB49091D086010BDBD490866704778
:100A9000800140EA0170B649843108607047B84966
:100AA00088667047800140EA0160B14940EA0270FF
:100AB000883108607047B24908677047B049C86418
:100AC0007047AB4A08321368084323F0EC631843BD
:100AD00010607047A64A08321368084323F0784331
:100AE000184310607047A24A0832116821F00301D0
:100AF0000143116070479E480830006800F00C0008
:100B000070479B4A0832116821F0F00101431160DF
:100B10007047974A0832116821F4E051014311608F
:100B20007047934908310A6822F4604242EAC000E3
:100B30000860704770B58E4A08321168934C11F006
:100B40000C0104D06610042903D0082903D00460E6
:100B50001BE0066019E08649091D0B68C3F3805548
:100B60000B6803F03F0315B1B6FBF3F301E0B4FBF0
:100B7000F3F30C680968C4F388146343C1F30141BB
:100B8000491C4900B3FBF1F1016011680F2303EA2E
:100B900011117F4B5C5C0168E140416014680725DE
:100BA00005EA94241C5D21FA04F48460126805EAC5
:100BB00052329A5CD140C16070BDC0F3012103295B
:100BC00008D16B4A0832116821F4F81371490140C9
:100BD00019431160664970310A68C0F30B00024383
:100BE0000A60704767494439086070476549403971
:100BF000086070476249C1F85C0170475C4A8C32FA
:100C00001168401E21F01F010143116070475849CF
:100C10008C310A686FF0FF0322F4F85203EB0020D6
:100C2000104308607047524A8C32116821F4401119
:100C30000143116070474E4A8C32116821F4400123
:100C40000143116070474A4A8C32116821F44031E7
:100C50000143116070475049C1F8E0017047444AB0
:100C600030320029116801D0014300E08143116056
:100C700070473F4A34320029116801D0014300E037
:100C80008143116070473A4A38320029116801D017
:100C9000014300E0814311607047354A403200292A
:100CA000116801D0014300E0814311607047304A70
:100CB00044320029116801D0014300E081431160F2
:100CC00070472B4A10320029116801D0014300E01F
:100CD000814311607047264A14320029116801D0FF
:100CE000014300E0814311607047214A1832002916
:100CF000116801D0014300E08143116070471C4A34
:100D000020320029116801D0014300E081431160C5
:100D10007047174A24320029116801D0014300E0CE
:100D2000814311607047124A50320029116801D086
:100D3000014300E08143116070470D4A543200299D
:100D4000116801D0014300E0814311607047084AF7
:100D500058320029116801D0014300E0814311603D
:100D60007047034A60320029116817D0014316E02A
:100D700000380240FFFFF6EA103000240030002067
:100D800000004742800E47420000FFFF0024F400AD
:100D900014000020FFFCFF0F001047428143116048
:100DA0007047194A0029116801D0014300E08143CE
:100DB0001160704714490C310128086803D020F0F5
:100DC00008000860704740F00800FAE70E4A573AFA
:100DD0000029117801D0014300E081431170704770
:100DE00009481030016841F0807101607047014688
:100DF000054A0020583A12680A4200D00120704784
:100E0000014956390870704764380240C14910B52D
:100E1000884202D10121841424E0BF49884202D1D2
:100E20000121041404E0BD4988420AD10121C41300
:100E30002046FFF764FF2046BDE810400021FFF781
:100E40005EBFB749884202D1012144140AE0B54986
:100E5000884202D101210C0504E0B34988420AD13D
:100E600001214C052046FFF754FF2046BDE8104005
:100E70000021FFF74EBF10BD30B502884C8802F448
:100E800041530A88CD8822438C882C4322430C8905
:100E900022434C8922438C892243CC8922431A4322
:100EA0000280828B22F400628283098A018230BD33
:100EB000F0B502220023858B01244FF24006354015
:100EC00085830284858B8E68022E42D08A8802B187
:100ED0000224964A13681B0203D5136823F4000307
:100EE0001360924A7C3213681268C3F388168F4FDE
:100EF000C2F302733F1F3A683F6802F03F027F026D
:100F000001D58B4F00E08B4FB7FBF2F27243B2FB7F
:100F1000F3F2CB88B3F5007F2BD06301B2FBF3F281
:100F200002EB82028B685200B2FBF3F2521D92B2C6
:100F30000A23B2FBF3F202F00103D21A4FF6FF7458
:100F4000C2F34F0204EA0323941EFE2C01D30222B3
:100F50000023CC881A43144304840A884B881A431C
:100F60008B8889890B431A432A4342F400618183A9
:100F7000F0BD120AD4E70021018041808180C18048
:100F8000018141818181C181072101827047002156
:100F9000018041808180C18002228260818170470E
:100FA0000029018802D041F0400101E021F0400118
:100FB000018070470029818B02D041F4806101E0FB
:100FC00021F4806181837047028822F400620280EC
:100FD00002880A4302807047B1F5804F018803D030
:100FE00021F480410180704741F48041FAE7A1F586
:100FF0007E420188FF3A02D041F4807101E021F481
:101000008071018070470029818802D041F004017D
:1010100001E021F00401818070470029818802D01D
:1010200041F0100101E021F010018180704730B5DE
:10103000838B00224FF240042340838302230384E6
:10104000848B0B884FF48075B3F5007F00D003B913
:101050002A464B888D8889892B4311430B432343B0
:1010600043F40061818330BD80897047818170477E
:101070000029018802D041F4005101E021F400511F
:1010800001807047018841F4805101807047012937
:1010900001D0008B7047808A7047008A7047002A11
:1010A000828801D00A4300E08A43828070470909A0
:1010B00001238B40002A828899B201D00A4300E0C4
:1010C0008A43828070470246002012890A4200D07B
:1010D00001207047C9430181704710B501F00F042A
:1010E0000122034602FA04F4002009098A4091B261
:1010F0009A88A4B20A401989214202D0002A00D05D
:10110000012010BD01F00F0201219140C94301816E
:10111000704700000030014000380040003C0040B3
:1011200000340140005001400054014008380240A2
:1011300000127A000024F400FE4910B5884206D15E
:1011400001210846FFF7E5FD002101205BE0B0F139
:10115000804F09D0F84988420DD101210220FFF7C4
:10116000CEFD0021022070E001210846FFF7C7FDF7
:101170000021012069E0F149884206D101210420C3
:10118000FFF7BDFD002104205FE0ED49884206D154
:1011900001210820FFF7B3FD0021082055E0E949AF
:1011A000884206D101211020FFF7A9FD002110205F
:1011B0004BE0E549884206D101212020FFF79FFD41
:1011C0000021202041E0E149884206D1012102208E
:1011D000FFF79FFD0021022015E0DD49884202D182
:1011E00001210C040AE0DB49884202D101214C04B0
:1011F00004E0D94988420AD101218C042046FFF736
:1012000088FD00212046BDE81040FFF782BDD3498C
:10121000884206D101214020FFF771FD00214020C6
:1012200013E0CF49884206D101218020FFF767FDF6
:101230000021802009E0CB4988420AD18415012190
:101240002046FFF75CFD00212046BDE81040FFF777
:1012500056BD10BD30B50288B64BBC4C98420DD07F
:10126000A0420BD0B0F1804F08D0B34DA84205D0BA
:10127000B24DA84202D0B24DA84203D122F070056F
:101280004A882A43AF4DA84206D0AF4DA84203D0AA
:1012900022F440750A892A4302804A68C2620A8899
:1012A0000285984201D0A04201D1897A01860121AC
:1012B000818230BD4FF0FF3141600021018001810A
:1012C000418081727047018582827047028822F0D6
:1012D00070020A430280704741627047C1627047E2
:1012E000406A7047008D70470029018802D041F0A4
:1012F000020101E021F0020101807047002901880C
:1013000002D041F0040101E021F0040101807047A6
:101310000029018802D041F0800101E021F0800124
:1013200001807047028822F00802028002880A4386
:1013300002807047028822F44072028002880A43C9
:10134000028070470029018802D041F0010101E0CC
:1013500021F001010180704730B5028C22F00102BA
:101360000284028C8388048B22F0020224F073052D
:101370000C882C438D8915434A882A436D4DA84219
:1013800002D0724DA8420DD122F00805CA8923F47B
:1013900040732A4322F004058A882A430D8A1D439C
:1013A0004B8A2B438380048389684163028430BD68
:1013B00070B5028C22F010020284028C8488038BA8
:1013C0000D8823F4E6464FF6FF7303EA05253543FF
:1013D0008E8922F0200203EA061616434A8803EAA1
:1013E00002123243534EB04202D0584EB04215D191
:1013F00022F08006CA8924F4406403EA02123243D0
:1014000022F040068A8803EA021232430E8A03EA77
:10141000860626434C8A03EA840434438480058389
:1014200089688163028470BD70B5028C22F4807279
:101430000284028C8488838B0D8823F073031D4300
:1014400022F400738E894FF6FF7202EA06261E43CD
:101450004B8802EA03233343364EB04202D03B4E60
:10146000B04215D123F40066CB8924F4405402EA3B
:101470000323334323F480668B8802EA0323334338
:101480000E8A02EA061626434C8A02EA0414344302
:10149000848085838968C163038470BD70B5028CC4
:1014A00022F480520284048C8288838B0D8823F47A
:1014B000E6464FF6FF7303EA0525354324F400564C
:1014C0008C8903EA043434434E8803EA0636264303
:1014D000184CA04202D01D4CA04205D122F48044F9
:1014E0000A8A03EA82122243828085838968016422
:1014F000068470BD002101804180818081608181EE
:10150000C18101824182704730B50124058C00F110
:1015100018038C40A543058431B308292CD0091F3A
:10152000C1F34E001844016848F6FF73194001608A
:1015300001681AE00000014000040040000800407B
:10154000000C004000100040001400400004014066
:1015500000400140004401400048014000180040A4
:10156000001C00400020004006E04FF6FF7303EA35
:1015700002221143016030BD03EB510001684FF6B8
:101580008F73194001600168F3E74163704781631D
:101590007047C163704701647047028B22F070028C
:1015A0000A4302837047028B4FF6FF7322F4E04236
:1015B00003EA0121114301837047828B22F07002FC
:1015C0000A4382837047828B4FF6FF7322F4E04216
:1015D00003EA0121114381837047028B22F0080244
:1015E0000A4302837047028B4FF6FF7322F40062B6
:1015F00003EA0121114301837047828B22F0080224
:101600000A4382837047828B4FF6FF7322F4006295
:1016100003EA0121114381837047028B22F0040207
:101620000A4302837047028B4FF6FF7322F48062F5
:1016300003EA0121114301837047828B22F00402E7
:101640000A4382837047828B4FF6FF7322F48062D5
:1016500003EA0121114381837047028B22F080024B
:101660000A4302837047028B4FF6FF73C2F30E02E8
:1016700003EA0121114301837047828B22F080022B
:101680000A4382837047828B4FF6FF73C2F30E02C8
:1016900003EA0121114381837047028C22F0020288
:1016A0000A4302847047028C22F008020A43028433
:1016B0007047028C4FF6FF7322F0200203EA0111FB
:1016C000114301847047028C4FF6FF7322F08002B1
:1016D00003EA0111114301847047028C4FF6FF7336
:1016E00022F4007203EA0121114301847047028C45
:1016F0004FF6FF7322F4006203EA012111430184D3
:101700007047028C4FF6FF7322F4005203EA013156
:1017100011430184704710B50123048C8B409C4316
:101720000484038C8A401343038410BD10B5042342
:10173000048C8B409C430484038C8A4013430384B1
:1017400010BD828B22F440628283828B4FF6FF733E
:1017500003EA01210A4382837047828B22F00C0244
:101760008283828B0A4382837047028B22F4406219
:101770000283028B4FF6FF7303EA01210A430283BF
:101780007047F0B5048C24F010040484078B068C99
:101790004FF6FF7404EA011527F4734704EA033196
:1017A000394304EA02220A4326F0A001294341F00A
:1017B000100102830184F0BD028B22F00C0202832F
:1017C000028B0A43028370472DE9F0410D460E88D3
:1017D0004988AA882B8904460EB3042E26D0082EE9
:1017E000268C4FF6FF7028D026F480562684A78BCF
:1017F000268C00EA022200EA013127F473473A43BB
:1018000000EA0330104326F420420A4342F4805198
:10181000A0832184E9882046BDE8F04191E700F0EB
:1018200062F9E9882046BDE8F041C5E7FFF7A9FF66
:10183000E9882046BDE8F04197E726F480762684C3
:10184000A78B268C00EA012100EA0310104327F041
:10185000F307384326F420620A4342F48071A083E0
:101860002184E9882046BDE8F04176E70021018027
:10187000418001228280C180018170472DE9F041C1
:101880000C46002649880746012501B90226A28890
:10189000012A00D10225208823890028384610D04B
:1018A000FFF76FFFE1883846FFF75FFF23892A467D
:1018B0003146384600F017F9E1883846BDE8F04176
:1018C0007AE700F010F9E1883846FFF775FF2389C1
:1018D0002A4631463846FFF754FFE1883846BDE8CE
:1018E000F04142E7406B7047806B7047C06B7047B8
:1018F000006C704710B50A884B88CC881A438B88D7
:1019000023431A430B891A434B8989891A430A4393
:10191000A0F8442010BD0021018041808180C18059
:101920000181418181817047002930F8441F02D034
:1019300041F4004101E0C1F30E010180704700292C
:10194000818802D041F0040101E021F0040181808E
:1019500070470029818802D041F0010101E021F0A7
:10196000010181807047002A828901D00A4300E08A
:101970008A43828170478182704702460020128A22
:101980000A4200D001207047C943018270470246D5
:101990000020138A92890B4202EA010202D0002A37
:1019A00000D001207047C943018270471143A0F85D
:1019B00048107047002A828901D00A4300E08A4318
:1019C000828170470029818802D041F0080101E03E
:1019D00021F0080181807047018921F00701018110
:1019E0007047028922F070020A430281704700B5F5
:1019F0000346FFF7F6FF188940F00700188100BD85
:101A000070B516460D46602904464FF00102314676
:101A10000AD000F068F829462046FFF7E2FF208947
:101A200040F00700208170BDFFF7ABFEF3E730B553
:101A300004894FF6FF7505EA03231343E4B20B4311
:101A40002343038130BD10B50446FFF7F0FF208922
:101A500040F07700208110BD10B50446FFF7E7FF86
:101A6000208940F48040208110BD828822F07002DD
:101A7000828082880A4382807047028922F00702AE
:101A8000028102890A4302817047028922F08002A2
:101A9000028102890A430281704770B50589048B6F
:101AA000068C25F007050D434FF6FC410C4040F233
:101AB00001110C434FF6FF7101EA031126F02206D3
:101AC0001143314305810483018470BD002981885D
:101AD00002D041F0800101E021F080018180704757
:101AE000A0F85010704770B5048C24F001040484F1
:101AF000058B048C4FF6FF7606EA0313134325F09B
:101B0000F3052B4324F00A020A4342F00101038348
:101B1000018470BDCD4910B5884206D10121102045
:101B2000FFF7F7F80021102020E0C949884202D1D0
:101B300001214C0429E0C749884202D101218C04CB
:101B400023E0C549884202D10121CC041DE0C349EC
:101B5000884202D101210C0517E0C149884209D110
:101B600001212020FFF7D5F800212020BDE81040FA
:101B7000FFF7CFB8BB49884202D101218C0704E0AE
:101B8000B94988420AD1012144052046FFF7B7F838
:101B90002046BDE810400021FFF7B1B810BD7FB569
:101BA0000446008A0D4620F44051E888084320820C
:101BB000A08941F20C618843A9882A8911436A8966
:101BC00002431143A181A08A20F44071A8890843EF
:101BD000A0826846FEF7AEFF9C48844202D0A0482F
:101BE000844201D1039800E00298A189090400EB26
:101BF000C00101EB0010296801D5490000E089000F
:101C0000B0FBF1F26420B2FBF0F109010B096FF0B7
:101C100018056B4302EB8302A3891D044FF03203C6
:101C200006D503EBC202B2FBF0F000F0070005E0BE
:101C300003EB0212B2FBF0F000F00F00084320812A
:101C40007FBD4FF41651016000218180C180018168
:101C50000C2242818181704710B5028A4C8822F49F
:101C600070630A8822438C88C9880C4322431A4334
:101C7000028210BD0021018041808180C1807047B7
:101C80000029818902D041F4005101E021F4005182
:101C900081817047028B02F47F420283028B0A43E8
:101CA000028370470029818902D041F4004101E09C
:101CB000C1F30E01818170470029818A02D041F46D
:101CC000006101E021F4006181827047C1F30801E5
:101CD000818070478088C0F308007047028A22F034
:101CE0000F020282028A0A43028270470029818918
:101CF00002D041F0020101E021F002018181704730
:101D0000828922F40062828182890A43828170473B
:101D1000028A22F020020282028A0A43028270476B
:101D20000029018A02D041F4804101E021F4804180
:101D300001827047818941F001018181704700294A
:101D4000818A02D041F0080101E021F0080181827E
:101D50007047028BD2B20283028B42EA01210183D7
:101D600070470029818A02D041F0200101E021F072
:101D70002001818270470029818A02D041F0100140
:101D800001E021F0100181827047828A22F0040272
:101D90008282828A0A43828270470029818A02D025
:101DA00041F0020101E021F0020181827047002A26
:101DB000828A01D00A4300E08A438282704710B5CC
:101DC000C1F3421301F01F040121A140012B07D0F0
:101DD000022B07D01430002A026805D00A4304E021
:101DE0000C30F8E71030F6E78A43026010BD024677
:101DF000002012880A4200D001207047C9430180A8
:101E0000704730B501F01F0201240025C1F34213D1
:101E100004FA02F2012B0FD0022B0FD0838A4FEA73
:101E200011210088134204FA01F400EA040001D0F1
:101E300000B10125284630BD8389F0E7038AEEE72B
:101E40000A0A01219140C9430180704700100140F6
:101E50000044004000480040004C0040005000405A
:101E60000014014000780040007C00402DE9F34F51
:101E7000C64D83B0062085F842000C460026C4A05B
:101E800009F0BAFD94F84010CBA02A3409F0B4FD53
:101E9000E17DCFA009F0B0FD617ED4A009F0ACFDDA
:101EA000A17ED9A009F0A8FDE17EDFA009F0A4FD84
:101EB000217EE5A009F0A0FD34F82A09A0F5806193
:101EC0005E390DD1A08DA0F500718E3908D1E4489E
:101ED00009F092FD0421A5F84A10E2A009F08CFD5A
:101EE00094F84410EC4F61B15D290ED0EBA009F0DD
:101EF00083FDD4F88000006C8047022005B0BDE867
:101F0000F08FEDA009F078FD04E094F84520F34847
:101F100009F072FD4FF0000AAB462F6505F842AF9D
:101F200085F803A094F85200A871B4F85400A88072
:101F300094F856002881EAA0423409F05DFDA979A1
:101F4000EEA009F059FDA988F1A009F055FD2989F5
:101F5000F5A009F051FD14F84279022F00D90227AB
:101F60003946F7A009F048FD52E000BF04EBC60077
:101F700010F8525FB0F8029001794078EA0900F059
:101F80000300CDE900095FEA0208029101D0F3A342
:101F900000E0F3A32A463146F24809F02DFDB8F1DE
:101FA000000FD84618D088F844502946039800F00E
:101FB00044FE88F84000010028D00322CDE9002922
:101FC00094F8213094F820204546039800F0F2FD63
:101FD00095F84010E4A017E088F84350294603988C
:101FE00000F02BFE88F8410001000FD00322CDE95C
:101FF000002994F8213094F820204546039800F0F9
:10200000D9FD95F84110E1A009F0F6FC761CF6B276
:10201000BE42ABD3E748544680F800A02146E6A074
:1020200009F0EAFC204669E770B5584C06460025E1
:1020300094F8401041B102F0BCFE94F840103046D4
:1020400000F016FE84F8405094F8411041B130463B
:1020500002F0AFFE14F8411F304600F009FE257073
:10206000D4480570457070BDF0B42126DDE9044503
:102070000E75092643EA02224E75CA8200220A839F
:102080004C8323462A46F0BC00F00ABE2DE9F74FE8
:10209000DFF820830C46012698F80220D1A002998F
:1020A00009F0AAFCDFF8E4A00298002501274FF010
:1020B00002090AF15E0A4FF0C10B01280BD0022879
:1020C00029D0032849D00146D2A009F095FC022668
:1020D0003046BDE8FE8FD8A009F08EFC98F80200CB
:1020E00070B12A4AB8F804305E322146009800F0F8
:1020F000D7FD0028ECD188F802500026D6A040E099
:102100008AF800708AF80150A8F8049084F814B096
:102110004B466775FDE1DAA009F06EFC98F8020005
:1021200088B11A4A638B5E322146009800F0B8FDF0
:102130000028CDD19AF80010D8A009F05DFC88F8ED
:1021400002500026C4E74120207584F81590E08AEB
:10215000E082208B2083638BDDE1D7A009F04CFC6B
:1021600098F8020080B1094AB8F804305E3221467E
:10217000009800F095FD0028AAD188F802500026AA
:10218000D5A009F039FCA3E7B8E1000084060020DF
:10219000203D3D3D2048494420496E74657266618A
:1021A000636520496E69742044657461696C656477
:1021B000203D3D3D200D0A002062496E7465726627
:1021C0006163654E756D6265723A2025640D0A0083
:1021D0002062416C7465726E6174655365747469D4
:1021E0006E673A2025640D0A000000002062496EE7
:1021F00074657266616365436C6173733A2030780D
:10220000253032580D0A00002062496E74657266EE
:10221000616365537562436C6173733A203078254E
:102220003032580D0A0000002062496E74657266F3
:1022300061636550726F746F636F6C3A20307825FC
:102240003032580D0A00000020624E756D456E64F4
:10225000706F696E74733A2025640D0A00000000E7
:10226000E8DA00082041646A757374656420706F51
:102270006C6C20696E74657276616C20666F72207A
:1022800058626F7820636F6E74726F6C6C65723A0F
:102290002025640A000000004400002020556E73D1
:1022A0007570706F72746564204849442064657667
:1022B0006963650D0A000000205374616E646172E9
:1022C00064204849442047616D65706164206465FD
:1022D0007465637465640D0A0000000060DA00082C
:1022E00020456E64706F696E7420436F6E66696717
:1022F00075726174696F6E3A0D0A000020204164A6
:1023000064723A203078253032580D0A00000000FF
:1023100020204D6178205061636B65742053697A89
:10232000653A2025640D0A002020506F6C6C20490E
:102330006E74657276616C3A2025640D0A000000A7
:10234000205363616E6E696E6720256420656E643C
:10235000706F696E74733A0D0A000000494E0000F8
:102360004F555400A4DA000820202020436F6E66E9
:1023700069677572656420494E20456E64706F69A7
:102380006E743A2048433D25640D0A002020202029
:10239000436F6E66696775726564204F55542045BA
:1023A0006E64706F696E743A2048433D25640D0A6F
:1023B00000000000240000202048494420496E7499
:1023C00065726661636520496E697420436F6D7044
:1023D0006C657465202D205374617475733A2025E3
:1023E000640D0A002048616E646C696E6720566552
:1023F0006E646F7220526571756573743A2030781F
:10240000253032582C2050686173653A2025640DC0
:102410000A0000002056656E646F723A20556E6B9C
:102420006E6F776E207265717565737420307825D4
:102430003032580D0A0000002056656E646F723A03
:10244000204765742056657273696F6E20526571FE
:10245000756573740D0A00002056656E646F723ADC
:102460002056657273696F6E2073656E7420737584
:10247000636365737366756C6C790D0A0000000008
:102480002056656E646F723A20536574204D6F64F8
:102490006520526571756573740D0A002056656E6E
:1024A000646F723A204D6F64652073657420746F99
:1024B0002025640D0A0000002056656E646F723A94
:1024C000204765742053746174757320526571756B
:1024D0006573740D0A0000002056656E646F723AD1
:1024E000205374617475732073656E742073756303
:1024F0006365737366756C6C790D0A008AF80070F9
:102500008AF80150A8F8049084F814B003204B46D0
:102510006075E58225836383E54A2146009800F0D3
:10252000BFFB064688F80270D2E52DE9FF5FE04E5A
:1025300005465E3E0C464FF0010A96F84510DDA0B8
:1025400009F05AFAE34F4FF00008787870B1E2A032
:1025500009F052FA627D21462846FFF797FD0128CF
:1025600001D087F8018004B0BDE8F09F207D4FF0D6
:102570000109C0F3411002280CD096F8450005F57A
:1025800088774FF0210B05287CD2DFE800F010435C
:1025900010668300617DDEA009F02EFA87F80190B5
:1025A000627D04B021462846BDE8F05F6EE5E3A0F9
:1025B00009F022FA0922CDE90072284621464FF49B
:1025C0000453012200F046FC08B1E4A09BE0B848A7
:1025D00095F810110A38017095F81111417095F8AD
:1025E000121195F8132101EB0221418095F8141185
:1025F000017195F81511417195F81611817195F8D1
:10260000171195F8182101EB0221018186F84590F8
:10261000D9A078E0DFF89882DDA0A8F10A08B8F820
:10262000081009F0E9F9B8F808202846CDE9007249
:1026300021464FF40853012200F00CFC08B1DFA042
:1026400061E0032086F84500E3A009F0D5F994F88D
:1026500044005D2859D1E6A055E0F3A009F0CCF97B
:1026600084F814B00A226275A4F81680A4F81880C1
:10267000002328462146A4F81A801A4600F010FBD1
:1026800018B100E041E0EDA03DE0042086F84500EF
:10269000EFA038E0F2A009F0AFF984F814B00B22F3
:1026A0006275A4F81690A4F81880002328462146E5
:1026B0004746A4F81A801A4600F0F2FA002824D1FE
:1026C000824686F84570ECA009F096F9608DA0F579
:1026D00080615E3919D1A08DA0F500718E3914D1B9
:1026E000F0A009F089F9F9A10023D1E90001CDE9B1
:1026F000020102A90520CDE9000121222146284638
:10270000FFF7B2FCF3A009F077F950462BE72DE96B
:10271000F0470C46DDE90976824698461546114693
:10272000F4A0DDF8209009F067F917B10EB141204F
:1027300000E0C12020756575A4F81680A4F81890F3
:10274000668333463A462146504600F0A9FA040013
:1027500007D002462946F0A009F04EF92046BDE810
:10276000F0872946F5A009F047F9F7E72DE9FC5F66
:102770004F4C584D5E3C81460E4694F84210E87826
:102780004FF0000BDA46814203D0E970C5F808A08B
:1027900002E0A868401CA86069B1032918D04FF076
:1027A000030804290ED0052923D0F0A009F024F94C
:1027B0005846BDE8FC9F206D00688047042084F8DF
:1027C0004200F5E7484602F0F4F9012859D0EFE756
:1027D00014F8403F3649A2795E39484600F0E8FADD
:1027E000012028700520A070484601F0A1FFA081BB
:1027F000DEE7484601F09CFFB4F84C10471A14F885
:10280000401F484601F098FF6189403CB94212D808
:1028100014F8401F484602F0CCFAE0884546CDE95E
:10282000008096F8213096F820202178484600F064
:10283000C1F9A570BCE7012807D0042817D00328E8
:10284000B6D1B7EB410FE3D8B2E728780128AFD172
:1028500085F800A00020B4F8461000E0401C81423A
:10286000FCDC206D416812485E388847A0E794F888
:10287000403094F848203146484600F078FC002863
:1028800096D184F8428093E73EB50025069C0095DA
:10289000CDE901342B46FFF73AFF3EBD3EB500259A
:1028A000069C0095CDE901342B46FFF730FF3EBD75
:1028B000E206002048494420436C6173732052654E
:1028C0007175657374202D2053746174653A2025E9
:1028D000640D0A00240000202056656E646F72208B
:1028E00072657175657374206163746976652C20F7
:1028F00068616E646C696E672076656E646F7220C5
:10290000726571756573742066697273740D0A005F
:102910002056656E646F72207265717565737420E0
:1029200064657465637465643A20625265717565A7
:1029300073743D3078253032580D0A002047657495
:1029400074696E67204849442044657363726970F6
:10295000746F722E2E2E0D0A00000000204849448C
:102960002044657363726970746F72204641494CEC
:1029700045440D0A00000000204849442044657386
:1029800063726970746F72204F4B0D0A0000000073
:102990002047657474696E67205265706F72742089
:1029A00044657363726970746F722C206C656E6716
:1029B00074683D25642E2E2E0A000000205265709A
:1029C0006F72742044657363726970746F7220460D
:1029D00041494C45440D0A00205265706F727420C5
:1029E00044657363726970746F72204F4B0D0A00F7
:1029F00020437573746F6D20646576696365202D5F
:102A0000206D6179207265717569726520737065DA
:102A10006369616C20696E697469616C697A61745B
:102A2000696F6E0A000000002053657474696E6758
:102A30002049646C652E2E2E0D0A0000205365740B
:102A40002049646C65206661696C65640D0A00004C
:102A5000205365742049646C65204F4B0D0A0000BB
:102A600053657474696E672050726F746F636F6C16
:102A70002E2E2E0A0000000048494420436C61734A
:102A80007320526571756573747320434F4D504CBC
:102A900045544544207375636365737366756C6C48
:102AA00079210A00496E697469616C697A696E6797
:102AB0002058626F78204F6E6520636F6E74726F5E
:102AC0006C6C65722E2E2E0A00000000052000019D
:102AD0000000000058626F78206163746976617449
:102AE0006520636F6D6D616E642073656E742E0A70
:102AF000000000002053656E64696E672056656EA5
:102B0000646F7220526571756573743A2030782550
:102B10003032580D0A0000002056656E646F722036
:102B2000726571756573742030782530325820666F
:102B300061696C65643A2025640D0A002056656E53
:102B4000646F7220726571756573742030782530FA
:102B5000325820636F6D706C6574656420737563A3
:102B60006365737366756C6C790D0A00484944207F
:102B7000556E6B6E6F776E2053746174653A2025C5
:102B8000640D0A0002F035BA017800290DD14178B0
:102B900014290AD1054A0021435C5354491CC9B287
:102BA0000E29F9D30249012008707047220700203E
:102BB000400000202DE9F04100EB4105DDE906670A
:102BC00095F8904504F07F0C00EB411484F8B1C3F4
:102BD00095F89055C5F3C01584F8B25384F8B02326
:102BE00084F8B563A4F8B67384F8B333002284F88C
:102BF000C82384F8C92313B9012284F8B42301F04F
:102C0000E1FF0020BDE8F08170B500EB4114059DA7
:102C10000AB184F8B023B4F8B623AA4202D00DB1A9
:102C2000A4F8B65394F8B3239A4202D00BB184F8B7
:102C3000B33301F0C7FF002070BD10B500224FF67E
:102C4000FF7300BF00EB4204B4F89045240409D49C
:102C50009A4205D000EB420041F40041A0F89015E3
:102C6000D0B210BD521CD2B2082AEBD31A46F7E7F5
:102C7000082907D200EB4100B0F89015C1F30E010E
:102C8000A0F89015002070470221002200EB4103BC
:102C9000491CC9B2A3F890250829F7D30020704732
:102CA00030B50120CD780446012D0BD0022D08D17E
:102CB0000A7F0D2A10D00B2A12D00C2A01D1CC7019
:102CC000032030BD0D784D7008250D708A608B8112
:102CD0000C770222CA7030BDCC700020087730BD5E
:102CE000CC70022030BD10B500EB4213002483F8F5
:102CF000B243032483F8B843C3F8BC130821C3F8D4
:102D0000C013114601F027FDC0B210BD70B500EB35
:102D10004314002584F8B253C4E9EF121AB194F8B1
:102D2000C91359B102E0012184F8C913022184F8C2
:102D3000B813194601F00FFD002070BD84F8B85398
:102D4000F7E770B500EB4314012584F8B253022570
:102D500084F8B853C4E9EF12194601F0FCFC0020D6
:102D600070BD70B50D4600EB4314002184F8B2131A
:102D7000C4E9EF5294F8C92302B1022184F8B813D0
:102D8000194601F0E8FC002070BD70B500EB43145B
:102D9000012584F8B253C4E9EF1294F8C81301B1C5
:102DA000022184F8B813194601F0D5FC002070BD4B
:102DB00070B500EB4314012584F8B253C4E9EF1257
:102DC00094F8C81359B1022284F8B82381F00101A4
:102DD00084F8C813194601F0BEFC002070BD002223
:102DE000F2E770B50D4600EB4314002184F8B213EE
:102DF000C4E9EF5294F8C82302B1022184F8B81351
:102E000082F0010184F8C813194601F0A4FC0020E7
:102E100070BD70B500EB4314012584F8B253C4E9CA
:102E2000EF12002184F8B813194601F094FC002039
:102E300070BD70B50D4600EB4314002184F8B21349
:102E4000C4E9EF5284F8B813194601F084FC00205D
:102E500070BD000030B442F08002DDE902540A7512
:102E600006224A750322CB82B2EB132F02D140F225
:102E7000094200E000220A834C8323462A4630BCE4
:102E8000FFF70EBF7CB51646044600F58870CDE905
:102E900000060D464FF4807300222046FFF7DAFF4C
:102EA00000283CD194F8101105F8221F94F8111154
:102EB000697094F8121194F81321082E01EB022185
:102EC000698094F81411297194F81511697194F8B6
:102ED0001611A97194F81711E97120D994F81811F5
:102EE00094F8192101EB0221298194F81A1194F820
:102EF0001B2101EB0221698194F81C1194F81D211A
:102F000001EB0221A98194F81E11A97394F81F11F5
:102F1000E97394F82011297494F8211169747CBD27
:102F20000A8803781A440A800178084470472DE91A
:102F3000FF4F85B005461978129829705978697045
:102F400092469978DA781C4601EB0221698019795A
:102F500029715A796A719A79AA71DA79EA71227AB1
:102F60002A7209286DD90920ADF80C0002296CD805
:102F7000DFF850825BE003A92046FFF7D1FF04464B
:102F80004078042853D194F90270069807EBC701E2
:102F900001EB000BE078032849D22146684600F097
:102FA000FDF89DF80400002602283CD94DE003A955
:102FB0002046FFF7B5FF04464078052833D10AEBD9
:102FC000071000EBC60998F80000B84202D088F854
:102FD000007007E02079617900EB0121B8F8020068
:102FE000814224D36946584600F0D8F8217889F800
:102FF0000010617889F80110A17889F80210E17851
:1030000089F8031021796279761C01EB0221A9F875
:103010000410A17989F806102079617976B200EB65
:103020000120A8F802009DF80400B042BFDC6888C7
:10303000BDF80C1088429ED80021A8F8021088F82C
:103040000010002009B0BDE8F08F0320FAE72DE959
:10305000FC47174600F58879CDE9009700248046A3
:103060000D464FF400732246FFF7F4FE060009D028
:1030700017E000BF08EB040191F810110155641C22
:10308000A4B200E05048BC42F4D34B4605F15002D4
:1030900005F13E0105F134000097FFF748FF00B14C
:1030A00006463046BDE8FC877CB51E46069D00F509
:1030B000887442F440730022CDE90045FFF7CAFE50
:1030C000002814D16178032911D121788A1EAA42DF
:1030D00000DC15460021AAB2A41C04E0635C891C34
:1030E00006F8013B89B29142F8D3002131707CBDD2
:1030F00030B400230B7505244C75CA820B834B83B7
:1031000030BC1A46FFF7CCBD30B400230B75092440
:103110004C75CA820B834B8330BC1A46FFF7C0BD87
:1031200030B401240C750B244C75CB820A83002229
:103130004A8330BC1346FFF7B3BD30B400240C758E
:1031400003254D75CA820B834C832346224630BC2F
:10315000FFF7A6BD30B400240C7501254D75CA8259
:103160000B834C832346224630BCFFF799BD30B415
:1031700002240C7501244C750024CC820A831506A8
:103180004C8300EB431202D582F8C84301E082F879
:10319000C943002330BC1A46FFF782BD0A7802708B
:1031A0004A7842708A788270CA78C2700A7902714D
:1031B0004A7942718A798271CA79C271097A017237
:1031C000704700004C000020300700200CB501467D
:1031D000D1F8900000680090009820F0004000F1C5
:1031E00000400090009820F0804000F18040009066
:1031F000009AD1F89000026000200190019820F41C
:10320000001000F5001001900198CA68506101207B
:103210000CBD38B5044600200090FE480068816867
:1032200020468847009820F0005000F100500090A0
:103230000098E1684861012038BD7FB5044600254B
:1032400000200090019003900290D4F8CC00006818
:103250000390D4F8CC0000680290029820F004009B
:103260000290029820F002000290029820F00800DC
:103270000290029820F0200002900398C0F34000D2
:1032800058B1029820F00200801C0290E1480068CA
:1032900041682046884745F001050398C0F3C00007
:1032A000002853D0029820F00800083002900398BC
:1032B000C0F38000002844D00398C0F341400228A6
:1032C00004D00398C0F34140012825D1606900680B
:1032D00001900398C0F3414002281DD141F2707162
:1032E00060694160019800F00300022814D0207A40
:1032F000022804D10221204601F0F8FB0CE04BF635
:10330000803160694160019800F00300012803D01A
:103310000121204601F0EAFBBE480068C168204652
:10332000884700200090009820F0005000F10050E5
:103330000090E0688069009988430843E1688861EB
:1033400004E0B44800680169204688470398C0F348
:10335000401030B1029820F020002030029045F05B
:1033600001050299D4F8CC000160284604B070BD74
:103370007FB505460C4605F1900050F82460B06812
:103380000390F0680290DDE902100840039005F117
:10339000900050F82400006801900398C0F380006A
:1033A000D0B100200090009820F00400001D009093
:1033B0000098B06005F1900050F82400C0680090BB
:1033C000009820F00200801C009005F1900050F859
:1033D00024000099C160A8E10398C0F3401048B1EF
:1033E00000200090009820F02000203000900098ED
:1033F000B0609AE10398C0F34020F8B105F1900065
:1034000050F82400C0680090009820F00200801C52
:10341000009005F1900050F824000099C160E1B2DD
:10342000284601F0C6FC00200090009820F40070AF
:1034300000F5007000900098B06076E1039800F00D
:10344000010038B3002105F5467040F8241005F15D
:10345000900050F82400C0680090009820F002000E
:10346000801C009005F1900050F824000099C16084
:10347000E1B2284601F09DFC00200090009820F069
:103480000100401C00900098B060012105F56470B7
:1034900001554AE10398C0F3C00010B3002000902A
:1034A000009820F00800083000900098B06005F106
:1034B000900050F82400C0680090009820F00200AE
:1034C000801C009005F1900050F824000099C16024
:1034D000E1B2284601F06DFC052105F56470015547
:1034E00023E10398C0F3001048B3002105F54670AE
:1034F00040F8241005F1900050F82400C0680090B6
:10350000009820F00200801C009005F1900050F817
:1035100024000099C160E87818B9E1B2284601F0AA
:1035200048FC00200090009820F01000103000901F
:103530000098B060032105F564700155F5E003982B
:10354000C0F3C01010B305F1900050F82400C0681B
:103550000090009820F00200801C009005F190007F
:1035600050F824000099C160E1B2284601F021FC26
:10357000062105F56470015500200090009820F0A8
:103580008000803000900098B060CEE00398C0F3D7
:10359000801048B3002105F5467040F8241005F16D
:1035A000900050F82400C0680090009820F00200BD
:1035B000801C009005F1900050F824000099C16033
:1035C000E87818B9E1B2284601F0F3FB002000903A
:1035D000009820F04000403000900098B060042136
:1035E00005F564700155A0E00398C0F3802078B31E
:1035F00005F1900050F82400C0680090009820F079
:103600000200801C009005F1900050F82400009901
:10361000C16001E064000020E1B2284601F0C9FB6E
:1036200000200090009820F01000103000900098CA
:10363000B060082105F564700155002000900098E5
:1036400020F4806000F5806000900098B0606CE02D
:10365000FFE70398C0F34000002866D005F1900012
:1036600050F82400C0680090009820F002000090FC
:1036700005F1900050F824000099C16005F56470D0
:10368000005D012815D1012105F29F3001550198F7
:10369000C0F3814002283ED105F56C7000EB441068
:1036A000407E80F0010105F56C7000EB441041761E
:1036B00031E005F56470005D032804D1022105F2B4
:1036C0009F30015527E005F56470005D04280FD197
:1036D00005F56C7000EB44100079012803D1E1B2CC
:1036E000284601F08AFB022105F29F30015512E0C5
:1036F00005F56470005D052804D1042105F29F30B2
:10370000015508E005F56470005D062803D103212A
:1037100005F29F30015500200090009820F0020033
:10372000801C00900098B06000BF012004B070BD04
:1037300070B586B005460C4605F1900050F824603F
:10374000B0680590F0680490DDE904100840059029
:1037500005F1900050F824000068039000200490C8
:103760000598C0F38000D0B100200190019820F0AE
:103770000400001D01900198B06005F1900050F820
:103780002400C0680190019820F00200801C019084
:1037900005F1900050F824000199C16073E005988C
:1037A000C0F3401048B100200190019820F02000A3
:1037B000203001900198B06065E00598C0F3C0002A
:1037C00078B305F1900050F82400C068019001988A
:1037D00020F00200801C019005F1900050F82400B8
:1037E0000199C160052105F5647001550020019023
:1037F000019820F01000103001900198B060002076
:103800000190019820F00800083001900198B06004
:10381000059820F010000590E1B2284601F0C9FAA1
:1038200031E0FFE70598C0F3802060B305F1900018
:1038300050F82400C0680190019820F00200801C1C
:10384000019005F1900050F824000199C160E1B2A7
:10385000284601F0AEFA00200190019820F01000F7
:10386000103001900198B060082105F56470015591
:1038700000200190019820F4806000F580600190A4
:103880000198B06000BF0598C0F34020F8B105F181
:10389000900050F82400C0680190019820F00200C8
:1038A000801C019005F1900050F824000199C1603E
:1038B000E1B2284601F07DFA00200190019820F441
:1038C000007000F5007001900198B0603CE105982F
:1038D00000F00100002871D0E878012812D105F12C
:1038E000900050F824000069029005F56C7000EB20
:1038F000441000690299C1F31201411A05F555708F
:1039000040F82410012105F5647001550021783834
:1039100040F8241000200190019820F00100401C84
:1039200001900198B0600398C0F3814020B10398E2
:10393000C0F3814002282AD105F1900050F82400FC
:10394000C0680190019820F00200801C019005F1F0
:10395000900050F824000199C160E1B2284601F0BE
:1039600028FA00200190019820F0100010300190FA
:103970000198B06005F56C7000EB4410007E80F09B
:10398000010105F56C7000EB44100176DCE0039852
:10399000C0F38140032899D1039820F0005000F132
:1039A0000050039005F1900050F824000399016045
:1039B000012105F29F300155C6E0FFE70598C0F3ED
:1039C0004000002851D005F1900050F82400C06854
:1039D0000190019820F00200019005F1900050F84C
:1039E00024000199C16005F56470005D012804D1CF
:1039F000012105F29F3001552DE005F56470005D51
:103A0000052804D1042105F29F30015523E005F576
:103A10006470005D062804D005F56470005D082818
:103A200008D1002105F5467040F8241003218730A5
:103A3000015510E00398C0F3814003280BD105F530
:103A40006C7000EB4410007E80F0010105F56C7095
:103A500000EB4410017600200190019820F0020054
:103A6000801C01900198B0606EE00598C0F3C01012
:103A700010B305F1900050F82400C068019001983F
:103A800020F00200801C019005F1900050F8240005
:103A90000199C160062105F564700155E1B228461F
:103AA00001F087F900200190019820F0800080301B
:103AB00001900198B06047E00598C0F30010E0B3B2
:103AC0000398C0F38140032816D105F1900050F807
:103AD0002400C0680190019820F00200801C019031
:103AE00005F1900050F824000199C160E87818B9F8
:103AF000E1B2284601F05DF9032105F56470015536
:103B000000200190019820F01000103001900198E1
:103B1000B0600398C0F3814020B10398C0F38140A6
:103B2000022811D1039820F0004000F100400390DA
:103B3000039820F08040039000E005E005F190003C
:103B400050F8240003990160012006B070BD7CB5D7
:103B5000054600240026284601F031F8019000BFF8
:103B60001BE0019880B20121A1400840A0B105F1FD
:103B7000900050F82400006800900098C0F3C03016
:103B800028B121462846FFF7D3FD064304E021462D
:103B90002846FFF7EDFB0643641C2878A042E0D8D6
:103BA00030467CBDFEB50446019820F078000190B7
:103BB0006069006900900198C0F3C30104F56C705E
:103BC00000EB41100069C01CC0F38F0674E04FF693
:103BD000FF71009801EA80050198C0F3C30104F564
:103BE0006C7000EB41100069A84216D20198C0F336
:103BF000C30104F56C7000EB4110008A85B200200F
:103C00000290029820F0806000F180600290E068ED
:103C1000806902998843E16888610198C0F3C30113
:103C200004F56C7000EB41100069C01CC0F38F06F6
:103C30000198C0F3C302C0F3C30304F56C7000EB3A
:103C400043102B46C168204600F0BAFD0198C0F32E
:103C5000C30104F56C7000EB4110C0684119019874
:103C6000C0F3C30204F56C7000EB4210C160019810
:103C7000C0F3C30104F56C7000EB41100069411BF7
:103C80000198C0F3C30204F56C7000EB42100161AF
:103C90000198C0F3C30104F56C7000EB411040695A
:103CA00041190198C0F3C30204F56C7000EB421097
:103CB0004161606900690090009880B2B0420ADDFD
:103CC0000198C0F3C30104F56C7000EB411000696A
:103CD00000287FF47CAF0120FEBD7FB5044601982B
:103CE00020F078000190E068C06A00900198C0F36D
:103CF000C30104F56C7000EB41100069C01CC0F3F7
:103D00008F0673E04FF6FF71009801EA8005019875
:103D1000C0F3C30104F56C7000EB41100069A842C8
:103D200015D20198C0F3C30104F56C7000EB41108B
:103D3000008A85B200200390039820F020002030F4
:103D40000390E068806903998843E168886101987D
:103D5000C0F3C30104F56C7000EB41100069C01C96
:103D6000C0F38F060198C0F3C302C0F3C30304F588
:103D70006C7000EB43102B46C168204600F020FD1C
:103D80000198C0F3C30104F56C7000EB4110C068EA
:103D900041190198C0F3C30204F56C7000EB4210A6
:103DA000C1600198C0F3C30104F56C7000EB4110D1
:103DB0000069411B0198C0F3C30204F56C7000EB6D
:103DC000421001610198C0F3C30104F56C7000EB6F
:103DD0004110406941190198C0F3C30204F56C70A9
:103DE00000EB42104161E068C06A0090009880B228
:103DF000B0420ADD0198C0F3C30104F56C7000EB1A
:103E00004110006900287FF47DAF012004B070BD2F
:103E100030B585B00446002000900390039820F050
:103E2000100010300390E068806903998843E168CE
:103E30008861E068006A0490049800F00F00009028
:103E400004F190009DF8001050F8210000680190E6
:103E50000498C0F34340022806D0032878D00528F0
:103E600077D0072873D175E00498C0F30A100028B2
:103E700069DD04F56C709DF8001000EB4110C0681E
:103E8000002860D00498C0F30A1204F56C709DF805
:103E9000003000EB4310C168204600F0A5FC0498F8
:103EA00000F00F0104F56C7000EB4110C06804993C
:103EB000C1F30A110144049800F00F0204F56C707C
:103EC00000EB4210C160049800F00F0104F56C7023
:103ED00000EB411040690499C1F30A1101440498B0
:103EE00000F00F0204F56C7000EB4210416104F524
:103EF0006C709DF8001000EB4110456904F5557099
:103F00009DF8001040F8215004F190009DF8001039
:103F100050F82100006902900298C0F3C9400028BF
:103F200011DD019820F0004000F10040019001985F
:103F300020F08040019004F190009DF8002001994C
:103F400050F82200016006E002E002E0FFE700BF57
:103F500000BF00BF00BF00BF039820F0100010306A
:103F60000390E068806903990843E1688861012053
:103F700005B030BD38B504460020009031480068D7
:103F8000016820468847009820F00800083000901B
:103F90000098E1684861012038BD38B50546002425
:103FA00000200090284600F038FD002847D0284621
:103FB00000F03AFD0090009808B9002038BD009844
:103FC000C0F3C00018B12846FFF7D4FF044300989F
:103FD000C0F3001018B12846FFF71AFF04430098F9
:103FE000C0F3401018B12846FFF777FE044300984D
:103FF000C0F3806018B12846FFF7D4FD0443009851
:10400000C0F3406018B12846FFF7A1FD04430098B3
:10401000C0F3006018B12846FFF70FF90443009879
:10402000C0F3407018B12846FFF7F3F80443009836
:10403000C0F3405018B12846FFF7C8F804432046A3
:10404000BCE70000640000200121C0F8101300202C
:1040500070470121C0F81413002070470021C0F8F8
:1040600014130846704770B50446002100F035FF70
:10407000E06800258561E168681E4861204600F01F
:1040800069FCC4F81053002070BD0020704770B563
:104090000C46002121706170A17001220546E2707A
:1040A00022774020A07184F8201084F82120217903
:1040B0002846FEF7DDFD61792846FEF7D9FD002090
:1040C00070BD2DE9F0411D4614460F468046069E00
:1040D00000F0CBFE002000F001FF21464046FFF734
:1040E000D6FFE4E91F563946404600F0E5FA60681D
:1040F000006880474046BDE8F04100F0DDBE2DE994
:10410000F05F00260C468E748046097F0B25092738
:104110000120DFF89C954FF0050A4FF00C0B0C299D
:1041200017D2DFE801F0CE060E394157647981A03D
:10413000B1C1627904F114014046FEF7D4FD0220BA
:10414000B8E06179404600F0F7FA012802D0032870
:104150001ED0B6E0207D618B00F0800051B141F2AD
:104160008832A9F80020802802D084F81CA008E03A
:10417000032005E03222A9F80020802806D007207D
:104180002077404600F0D4FA20829AE02777F8E7BB
:10419000257784F812A094E02379A2894046A1688B
:1041A000FEF7CFFD042085E02179404600F0C4FAF7
:1041B00001280DD0042827D0032873D0404600F0F2
:1041C000B7FA218A411AB9F8000081426AD878E02A
:1041D0002777F3E7627908EB421181F8C903637925
:1041E000A2894046A168FEF791FD062062E0617950
:1041F000404600F0A1FA012804D0042804D0022887
:1042000007D049E0072055E06078207084F81CB0A2
:1042100057E084F81CA054E0002223791146404660
:10422000FEF78FFD082045E02179404600F084FA32
:10423000074601280DD0032F34D0404600F078FA0D
:10424000218A411AB9F8000081422BD8042F04D0EA
:1042500037E0607820700D202CE06078207084F8C2
:104260001CB003262DE06179002208EB411090F884
:10427000C91381F0010180F8C913637911464046E2
:10428000FEF744FD0A2015E06179404600F054FA3B
:104290000128DED0022803D0032803D011E001E07A
:1042A00027770EE025770CE0A17B491CC9B2A173EA
:1042B000022901D8207704E00820A07460782070DB
:1042C00002263046BDE8F09F70B50C25044605294E
:1042D0000AD0042908D006290BD12570D0F8800017
:1042E0000068BDE870400047D4F88000406C80470B
:1042F000257070BD2DE9F0410C4680460126897875
:104300000025FF2092B037460A2952D2DFE801F09B
:10431000051F2E525F71849BAEB80822214640468D
:10432000FEF7B0FD002844D194F82900A071A770D1
:10433000CDE90050002361791A464046FEF764FC3F
:10434000A0790023CDE9005021791A462EE01222EF
:1043500021464046FEF796FD00282AD1D4F8800079
:10436000C16904F122008847022087E0012221462A
:104370004046FEF7BDFE00281BD1022000F0B6FD2E
:1043800084F82070D4F88000A41C006A80470320C1
:10439000207000950195A27FA17800234046FEF78A
:1043A00033FC00950195A27FE17800234046FEF79B
:1043B0002BFC66E0092221464046FEF748FE002815
:1043C0005FD1E08EB0F5806F5BD8042056E0E28EBE
:1043D00021464046FEF73BFEA0BBD4F8800004F126
:1043E000500204F13E01436A04F13400984705206D
:1043F00044E094F83020062552B1009002AB2146EB
:104400004046FEF751FEE8B9D4F88000816A11E019
:10441000D4F88000816A12E094F8312007255AB15F
:10442000009002AB21464046FEF73EFE50B9D4F85C
:104430008000C16A02A803E0D4F88000C16A9DA090
:104440008847A5701DE094F83220082552B10090ED
:1044500002AB21464046FEF727FE90B9D4F8800013
:10446000016BE7E7D4F88000016BE8E794F83920A6
:1044700021464046FEF748FE18B90920A07000E02A
:10448000002612B03046BDE8F0812DE9FC4102263D
:104490000C4680468DF8006000F044F918B14046A3
:1044A00000F043F928B9207818B1032801D003207F
:1044B00020702078002504F120070D285BD2DFE86A
:1044C00000F0071B25A75A5C788A92685A5A970011
:1044D000404600F027F900284DD0012020706420CC
:1044E00000F004FD404600F018F9D4F88000C068E0
:1044F00002B0BDE8F0410047D8F8140301283AD1D2
:104500002670BDE8FC41322000F0F0BCD4F88000F9
:104510008068804700214046FEF78FFB6071802154
:104520004046FEF78AFB2071404600F0F6F800286E
:1045300021D1D4F88000241DC0688047404600F097
:10454000E6F8C0B26077052104F8041CE16F8969C0
:104550008847A078CDE90050637F227F21784046CC
:10456000FEF728FBA078CDE90050637F227F6178B9
:104570004046FEF71FFBBDE8FC8121464046FFF7A1
:10458000B9FE0028F7D1D4F88000406B804709209D
:104590000DE0D4F88000806B80470128EBD1E06FFC
:1045A00021460268404690470028E4D1062020704A
:1045B000E1E7E06F21468268404690478DF80000B1
:1045C0009DF8000008B90720F1E79DF8001020468B
:1045D000BDE8FC4178E6E06F2146C268404690475E
:1045E0008DF80000F1E721464046BDE8FC4186E534
:1045F00021464046FFF74BFDD4F8800040688047D5
:10460000E06F3946426802B04046BDE8F0411047CD
:10461000D4F880000069804721464046FFF737FD07
:10462000D4F8800040688047E06F394642684046D1
:1046300090474046FEF728FB25704046BDE8FC4108
:10464000012100F039B870B50446D0F80C010168BA
:1046500021F001010160D4F80C01016821F003018F
:104660000160204600F00AFA20F0800040F040058A
:1046700054F8CC0F0560142000F038FC216825F0B8
:104680004000086070BD10B5044600F0F7F954F81A
:10469000CC1F40F080000860206C016841F00101EF
:1046A0000160206C016841F00301016010BD000051
:1046B000680000204E2F410010B50446002210462D
:1046C000C4F8102304EB8203C3F81803C3F854039F
:1046D000A31883F89003521CD2B20F2AF2D30820F9
:1046E000A4F8B603204600F08FF8204600F032F917
:1046F000204600F0E7F80121204600F06BF9204643
:1047000000F0FAF9204600F01DF9002010BDD0F8A5
:10471000CC000068C0F34140704710B500F0D1F9FB
:10472000002010BDD0F810037047D0F81403704774
:104730004069806880B27047084490F89F037047D2
:1047400000EB8100D0F854037047084490F89003C0
:10475000704700F037BA0022431883F89F2300EB1C
:104760004113C3F8C42300F0A3BA0000F8B5002732
:1047700004463E460097FE4D032000F0B0FBE06883
:1047800000690090761CAE4201D90020F8BD009867
:104790000028F1DA0099002041F001010091009910
:1047A000E2681161E1680A690092401CA84202D8DF
:1047B000009AD207F7D1032000F091FB3846F8BDEC
:1047C00070B50025C6782C4666B900EB8200DB1C6C
:1047D0009B08D0F8D00003E051F8042B0260641C61
:1047E0009C42F9D3284670BD034610B50020D21C68
:1047F0009208D3F8D03003E01C6841F8044B401C09
:104800009042F9D3084610BD70B500220125C27050
:1048100040268570144613468680012901D061B177
:1048200014E0C5720821017004214FF0A0424170CC
:104830009115C1800221017208E0C3720C21017040
:1048400006214170CB4A4FF4A061C18002F500619E
:10485000C0E9032100210AE002EB411303F51066D1
:1048600000EB810503F53063AE61491C6B6543784D
:104870008B42F1D802F5806141614031C0F8CC1023
:10488000002108E002EB411300EB810503F5A06372
:10489000491CC5F8903003788B42F3D8002108E01A
:1048A00002EB013300EB810503F58053491CC5F889
:1048B000D03003788B42F3D802F56062C0F80C2147
:1048C000204670BD70B50446017A0025C0680129F4
:1048D00015D0C16841F04001C1602046FFF746FF96
:1048E000617A4FF4341009B14FF47410E1688863B1
:1048F000142000F0FBFAE078012819D020E0816B49
:10490000627A21F480310AB141F480118163E06858
:10491000C16821F0401121F42021C1602046FFF739
:1049200025FFE07801280BD1E1682A208860E2E7C2
:10493000E068816821F01E010A3141F020018160A8
:10494000284670BDC0680021826842F00102826082
:1049500008467047C0680021826822F00102826028
:104960000846704738B5002422460094009B43F067
:1049700020030093009B61F38A1300930099C3689E
:1049800019617B49C06803690093521C8A4202D8AE
:10499000009B9B06F7D4032000F0A1FA204638BD07
:1049A00038B5002421460094009A42F0100200928B
:1049B000009AC3681A616E4AC06803690093491C73
:1049C000914202D8009BDB06F7D4032000F087FA5F
:1049D000204638BD10B5C0680024C268012922F005
:1049E000C04201D019B104E042F0005201E042F0AF
:1049F0008042C260322000F079FA204610BDC068C3
:104A0000406900F001007047C068406910F0010F74
:104A100001D00020704701207047C068406910F045
:104A2000010000D001207047C068416980690840DA
:104A30007047C0684068704710B5C36800210A46D7
:104A40009961C4684B1E6361C4686360C4686FF099
:104A500080436361C468484BA361C37803B91022E3
:104A6000C46842F04872A36993431343A361C068CA
:104A7000424A836993438361084610BDD0F8CC0055
:104A8000006820F02E00704770B50C46054600F017
:104A900024FA2846FFF7F2FFC10403D4012C03D007
:104AA000C10409D51CB107E040F4805001E020F4B6
:104AB0008050D5F8CC100860BDE87040C82000F0E8
:104AC00015BA70B50446FFF7D9FF40F4807554F865
:104AD000CC0F0560642000F009FA216825F480708D
:104AE0000860142000F002FA012070BD42691068CD
:104AF00061F30100106070472DE9F0410027044682
:104B00003E463D4600F0EAF9D4F80C010560207AF3
:104B100001280FD001212046FFF7E8FF2046FFF7CC
:104B2000D0FF6069016821F004010160E07A01288A
:104B300002D015E00021EEE7E068802141622846BE
:104B400061F30F00E268602161F31F409062E02290
:104B5000284662F30F0061F31F40E168C1F80001CD
:104B600010212046FFF7FEFE2046FFF719FF07E061
:104B7000400D0300000004400008008008000020F1
:104B80004FF0FF3108E000BF04EB860050F8902F93
:104B900091600068C560761C2078B042F4D801218D
:104BA0002046FFF771FF2046FFF746FF3846BDE875
:104BB000F0814069806840F30000401C7047406904
:104BC00040697047F0B5074607EB81060020D6F82C
:104BD00090500446431E2246AB60FB78012B00D167
:104BE000042207EB411393F8B55335B1012D1FD0C3
:104BF000022D02D0032D27D10EE042F0890545F4A5
:104C0000826293F8B25385B993F8B45342F04002EC
:104C1000D5B142F0200217E093F8B2C342F09902F6
:104C200042F4C062BCF1000F0ED042F480720BE07F
:104C300093F8B2C342F0010242F40872BCF1000FD3
:104C400002D042F08002F0E7D6F89050EA600122EC
:104C50008A4079698D6915438D61F9688A6942F0E6
:104C600000728A6193F8B01361F39C5493F8B11306
:104C700061F3CE2493F8B21361F3CF3493F8B313F6
:104C800002290CD024F4003193F8B523B3F8B633DD
:104C900062F3934163F30A01032A03D004E044F46E
:104CA0000031F1E741F00051D6F890201160F0BDDD
:104CB000F0B5064606EB41140027D4F8C0534FF474
:104CC00080703B466DB1B4F8B62315446D1EB5FB3C
:104CD000F2F5ADB2854205D905461002C4F8C0030D
:104CE00000E0012594F8B203A8B1B4F8B603684314
:104CF000C4F8C00360F3120394F8B80365F3DC430F
:104D000006EB810260F35E73D2F890000361F078E5
:104D1000012803D007E0D4F8C003EBE7D2F89030C5
:104D2000D4F8BC03586152F8900F03683046FFF77F
:104D300040FF60F35D73126823F0804040F0004054
:104D40001060F07898BB94F8B20380BBD4F8C0032D
:104D500068B394F8B52332B1012A11D0022A02D0E7
:104D6000032A1AD10CE0F268D36AC01CC0F38F008A
:104D70009BB2834211D2906940F0200090610CE018
:104D800072691269C01CC0F38F0092B2824204D2D1
:104D9000F068826942F080628261B4F8C0030A461A
:104DA00083B2D4F8BC0301463046FFF709FD38460C
:104DB000F0BD30B500EB81040023D4F890201168D9
:104DC00041F0804111F4402F0AD0C1F38145022DFA
:104DD00006D04069D0F8100010F47F0F03D005E032
:104DE000C068C06AF8E721F00041116041F000405E
:104DF000D4F890100860184630BD10B500EB810063
:104E0000002350F8901F4FF00042012464F3DC426D
:104E10000A610068016821F0804141F000410160B1
:104E2000184610BD10B504460020616988616169AB
:104E3000401E486100200AE004EB8001D1F8901088
:104E40000A6822F0802242F080420A60401C2178E9
:104E50008142F1D82046FFF7A3FD2046BDE810406F
:104E600010217FE52348FFF798B81CB501210846BB
:104E7000FBF7F5FE01218020FBF7FBFE4FF4C0504D
:104E8000009002208DF8040000208DF80600032118
:104E90008DF80510184C8DF8070069462046FBF781
:104EA000C5FC0A220B212046FBF749FD0A220C21F2
:104EB0002046FBF744FD1CBD08B543208DF80000DB
:104EC00001208DF8010003218DF802108DF80300F8
:104ED0006846FBF742FA08BD70477047704700EB21
:104EE000C001C1EB8010401EFDD170474FF47A71B4
:104EF0004843F4E7501B00200000024010B53FA0DB
:104F000006F07AFDBDE8104044A006F075BD4BA048
:104F100006F072BD52A006F06FBD10B557A006F0A6
:104F20006BFD5C490020087010BD5BA006F064BDFD
:104F300030B1012806D0022806D05BA006F05CBD87
:104F40005EA0FBE765A0F9E76CA0F7E710B50446A3
:104F5000018971A006F050FD6189BDE8104072A082
:104F600006F04ABD74A006F047BD4879082805D070
:104F7000032805D17AA000BF06F03EBD7CA0FBE768
:104F80007047014681A006F037BD014684A006F0B7
:104F900033BD014686A006F02FBD8AA006F02CBDC9
:104FA00091A006F029BD10B596A006F025FD39495F
:104FB0000120087010BD9CA006F01EBDA0A006F048
:104FC0001BBD704710B5A3A006F016FDBDE810404C
:104FD000AAA006F011BD08B50246AAA1684606F0CF
:104FE0001BFD6946A9A006F007FD08BD94A006F0C8
:104FF00003BDA9A006F000BD704700003E20555338
:105000004220486F7374206C6962726172792073F8
:105010007461727465642E0A000000002020202054
:105020002055534220486F7374204C69627261723C
:10503000792076322E322E31000000005553422066
:10504000646576696365206973206465746563745B
:10505000656420696E736572746564210D0A0000D1
:10506000556E7265636F76657261626C65206572FC
:10507000726F722121210D0A0D0A00005553422042
:1050800064657669636520756E706C7567676564C5
:10509000210D0A006A000020555342205245534515
:1050A000542E2E2E0D0A000045717569706D656EC7
:1050B00074206572726F72210D0A0000486967687A
:1050C0002073706565642028485329555342206435
:1050D000657669636573210D0A00000046756C6C86
:1050E0002073706565642028465329555342206417
:1050F0006576696365210D0A000000004C6F77201A
:10510000737065656420284C5329555342206465AB
:1051100076696365210D0A005649443A20253034EA
:1051200058680D0A000000005049443A20253034E8
:1051300058680D0A00000000536C617665206164B8
:10514000647265737320616C6C6F636174696F6EF8
:1051500020737563636565646564210D0A00000052
:1051600048494420646576696365210D0A000000A2
:1051700052656D6F7661626C65206D656D6F7279D9
:1051800020646576696365210D0A00004D616E75C6
:1051900066616374757265723A2025730D0A0000AA
:1051A00050726F647563743A2025730D0A00000015
:1051B00053657269616C204E756D6265723A202587
:1051C000730D0A0044657669636520656E756D65CB
:1051D000726174696F6E20697320636F6D706C65A6
:1051E0007465210D0A0D0A003E20446576696365E9
:1051F000206E6F7420737570706F727465642E0A00
:1052000000000000536B6970207468652075736539
:105210007220636F6E6669726D6174696F6E207360
:10522000746570210D0A00004F76657263757272A5
:10523000656E742064657465637465642E0A00008D
:105240007265696E697469616C697A652121210DE5
:105250000A0000003E20557365204B6579626F613E
:10526000726420746F20746170652063686172617C
:1052700063746572733A200A0A0000000A0A0A0A77
:105280000A0A0000253032580000000075736220C1
:105290006275663D2025730047414D4550414420CD
:1052A000646973636F7665720D0A000070B5FF4D17
:1052B0000446C1B22846FCF709FD40212846FCF708
:1052C00096FD0028F9D0204670BD10B5F74C20217E
:1052D0002046FCF78CFD0028F9D02046BDE81040A0
:1052E000FCF7F8BCF0B50646012187B00846FBF78D
:1052F000B6FC01211020FBF7DAFCED4F0722092153
:105300003846FBF71CFB07220A213846FBF717FB40
:105310004FF4C060049002208DF814008DF8150041
:1053200000248DF8164001258DF8175004A9384641
:10533000FBF77CFAADF80440ADF80640ADF8084044
:10534000ADF80C400C20D94CADF80A000096694627
:105350002046FCF724FC01212046FCF791FC0122A9
:1053600040F225512046FCF72AFD25208DF8180033
:105370008DF819508DF81A508DF81B5006A8FAF7C1
:10538000ECFF07B0F0BD10B5C84C01462046FCF755
:105390009DFC80212046FCF72AFD0028F9D010BD95
:1053A00010B5044602E0641CFFF7EDFF20780028EA
:1053B000F9D110BD2DE9F041BC4C40F225552946EC
:1053C0002046FCF714FD012844D129462046FCF76D
:1053D00037FD2046FCF77EFCB64DC0B22988002977
:1053E00038D1B54900230124B44A3C2802D00E78B4
:1053F00016B10FE004260BE0242804D0232804D0A3
:105400007B2804D005E00C7003E0022600E00326B0
:105410000E705380AA4E5788F0557F1CBFB257803C
:105420000978042906D001290BD0022909D00329C3
:105430000AD00BE03E2809D1A248F3552C80047015
:1054400004E02128F8D001E07D28F5D0B7F5806F81
:1054500000D35380BDE8F081F0B5064687B0012146
:105460000820FBF7FCFB01214804FBF716FC964FD4
:10547000072205213846FBF762FA07220621384643
:10548000FBF75DFA6020049002208DF814008DF87F
:10549000150000248DF8164001258DF8175004A939
:1054A0003846FBF7C3F9ADF80440ADF80640ADF857
:1054B0000840ADF80C400C20844CADF80A00009672
:1054C00069462046FCF76BFB01212046FCF7D8FB20
:1054D000012240F225512046FCF771FC26208DF870
:1054E00018008DF819508DF81A508DF81B5006A829
:1054F000FAF733FF45E710B5744C01462046FCF738
:10550000E5FB80212046FCF772FC0028F9D010BD95
:1055100010B5044602E0641CFFF7EDFF2078002878
:10552000F9D110BD2DE9F041684C40F225552946CE
:105530002046FCF75CFC01288CD129462046FCF76C
:105540007FFC2046FCF7C6FB5A4CC0B221880029DC
:1055500036D1012558490023584A3C2802D00E78FC
:1055600016B10FE004260BE0242804D0232804D031
:105570007B2804D005E00D7003E0022600E003263E
:105580000E7093804E4E9788F0557F1CBFB2978067
:105590000978042906D0012907D0022905D003295A
:1055A00006D009E03E2805D006E0212802D003E01D
:1055B0007D2801D1F3552580B7F5806F00D3938006
:1055C00048E7F0B5064687B001210220FBF747FB0C
:1055D00001218804FBF761FB3D4F07220A21384671
:1055E000FBF7ADF93815049002208DF814008DF802
:1055F000150001258DF8165000248DF8174004A9D8
:105600003846FBF713F9ADF80440ADF80640ADF8A5
:105610000840ADF80C400C202E4CADF80A00009666
:1056200069462046FCF7BBFA01212046FCF787FBC0
:1056300027208DF818008DF819508DF81A508DF824
:105640001B5006A8FAF789FE012240F22551204698
:10565000FCF7B5FB002240F227712046FCF7AFFBB8
:1056600001212046FCF70CFB8BE670B5194D064670
:105670000C35288840F008002880288820F0040095
:105680002880144C09E02046761CFCF71FFB802183
:105690002046FCF7ACFB0028F9D031780029F2D184
:1056A000FF212046FCF712FB802115E0001001408D
:1056B000000002405406002078060020B4000020BC
:1056C0009426002053060020000C024000440040B5
:1056D00000040240004800402046FCF788FB0028F8
:1056E000E2D0288840F004002880288820F00800B4
:1056F000288070BD2DE9F041FF4C40F22555294628
:105700002046FCF774FB012842D129462046FCF7CD
:1057100097FB2046FCF7DEFAC4B2F8A006F06CF95D
:10572000FA4B1888002833D1F9490125F9480E7839
:105730004FF0030C002276B9242C04D0232C04D083
:105740007B2C05D006E00D7004E002260E7001E00F
:1057500081F800C0C280F04EC788F4557F1CBFB2EC
:10576000C780097801290AD0022908D0032909D065
:105770000AE0EA49F2551D8081F800C004E0212CBE
:10578000F7D001E07D2CF4D0B7F5806F00D3C28054
:1057900060E6F0B5064687B001210420FBF75FFA0A
:1057A0000121C804FBF779FADD4F08220A213846A7
:1057B000FBF7C5F808220B213846FBF7C0F84FF479
:1057C0004060049002208DF814008DF8150000242C
:1057D0008DF8164001258DF8175004A93846FBF7BF
:1057E00025F8ADF80440ADF80640ADF80840ADF836
:1057F0000C400C20CB4CADF80A00009669462046C0
:10580000FCF7CDF901212046FCF73AFA012240F2DB
:1058100025512046FCF7D3FA34208DF818008DF876
:1058200019508DF81A508DF81B5006A8FAF795FDFF
:10583000A7E510B5BB4C01462046FCF747FA80218E
:105840002046FCF7D4FA0028F9D010BD10B5044664
:1058500002E0641CFFF7EDFF20780028F9D110BDAD
:105860002DE9F041AF4C40F2255529462046FCF782
:10587000BEFA012842D129462046FCF7E1FA20462B
:10588000FCF728FAA14CC0B22188002936D10125A5
:105890009F4900239F4A3C2802D00E7816B10FE0A2
:1058A00004260BE0242804D0232804D07B2804D02D
:1058B00005E00D7003E0022600E003260E70138160
:1058C000954E1789F0557F1CBFB2178109780429BE
:1058D00006D0012907D0022905D0032906D009E006
:1058E0003E2805D006E0212802D003E07D2801D122
:1058F000F3552580B7F5806F00D31381AAE5F0B585
:1059000087B001210C20FBF7AAF901210805FBF75C
:10591000C4F9854F082202213846FBF710F802200F
:105920008DF814008DF81500002604258DF81660FA
:10593000012404958DF8174004A93846FAF776FF3C
:105940007A4800902003ADF804004000ADF806004E
:10595000C010ADF80800ADF80A50754DADF80C60F8
:1059600069462846FCF71BF935208DF818008DF89C
:1059700019408DF81A408DF81B4006A8FAF7EDFC87
:10598000012240F225512846FCF719FA012240F283
:1059900024412846FCF713FA01212846FCF770F948
:1059A000EFE42DE9F041624E40F22557394630468A
:1059B000FCF727FA5F4C574D40B13046FCF78AF9A7
:1059C000014628782154401C287072E040F2244798
:1059D00039463046FCF715FA002871D000202870AF
:1059E000544955A006F008F8B4F80100C0F30A01C4
:1059F000504828304180A278E378D20842EA431226
:105A0000C2F30A02828025799B0943EA85056379FE
:105A100045EA8325C5F30A05C5805D08A37945EAF3
:105A2000C315C5F30A0505814FEA131CE3794CEA57
:105A3000031CCCF30A0CA0F80AC094F808E0DB09B8
:105A400043EA4E0E637A4EEA432ECEF30A0EA0F8D6
:105A50000CE04FEA930EA37A4EEA831ECEF30A0EB1
:105A6000A0F80EE0E47A5B0943EAC403038240F243
:105A7000DC5084451DD9334CA2F57872A1F57870BD
:105A8000E28005F0AFFB9FED301B53EC112B05F0CE
:105A9000C8FA05F0C5FB2081A5F5787005F0A2FBDA
:105AA0009FED2B1B53EC112B05F0BBFA05F0B8FB57
:105AB000608139463046BDE8F0410122FCF77FB9EC
:105AC000C8E42DE9F041804688B001210420FBF7AD
:105AD000C6F801212020FBF7EAF8114F0822062121
